{
  "_format": "hh-sol-artifact-1",
  "contractName": "Payment",
  "sourceName": "contracts/Payment.sol",
  "abi": [
    {
      "inputs": [
        {
          "internalType": "address",
          "name": "_usdcTokenAddress",
          "type": "address"
        }
      ],
      "stateMutability": "nonpayable",
      "type": "constructor"
    },
    {
      "anonymous": false,
      "inputs": [
        {
          "indexed": true,
          "internalType": "address",
          "name": "from",
          "type": "address"
        },
        {
          "indexed": true,
          "internalType": "address",
          "name": "to",
          "type": "address"
        },
        {
          "indexed": false,
          "internalType": "uint256",
          "name": "amount",
          "type": "uint256"
        },
        {
          "indexed": false,
          "internalType": "bytes32[]",
          "name": "items",
          "type": "bytes32[]"
        }
      ],
      "name": "PayEvent",
      "type": "event"
    },
    {
      "inputs": [],
      "name": "_owner",
      "outputs": [
        {
          "internalType": "address",
          "name": "",
          "type": "address"
        }
      ],
      "stateMutability": "view",
      "type": "function"
    },
    {
      "inputs": [
        {
          "components": [
            {
              "internalType": "address",
              "name": "to",
              "type": "address"
            },
            {
              "internalType": "uint256",
              "name": "amount",
              "type": "uint256"
            },
            {
              "internalType": "bytes32[]",
              "name": "items",
              "type": "bytes32[]"
            }
          ],
          "internalType": "struct Payment.Payment",
          "name": "payment",
          "type": "tuple"
        }
      ],
      "name": "pay",
      "outputs": [],
      "stateMutability": "nonpayable",
      "type": "function"
    },
    {
      "inputs": [],
      "name": "usdcToken",
      "outputs": [
        {
          "internalType": "contract IERC20Complete",
          "name": "",
          "type": "address"
        }
      ],
      "stateMutability": "view",
      "type": "function"
    }
  ],
  "bytecode": "0x60a060405234801561001057600080fd5b506040516108ae3803806108ae8339818101604052810190610032919061010f565b8073ffffffffffffffffffffffffffffffffffffffff1660808173ffffffffffffffffffffffffffffffffffffffff1681525050336000806101000a81548173ffffffffffffffffffffffffffffffffffffffff021916908373ffffffffffffffffffffffffffffffffffffffff1602179055505061013c565b600080fd5b600073ffffffffffffffffffffffffffffffffffffffff82169050919050565b60006100dc826100b1565b9050919050565b6100ec816100d1565b81146100f757600080fd5b50565b600081519050610109816100e3565b92915050565b600060208284031215610125576101246100ac565b5b6000610133848285016100fa565b91505092915050565b60805161075161015d6000396000818160a0015261010d01526107516000f3fe608060405234801561001057600080fd5b50600436106100415760003560e01c806311eac855146100465780639a4359dc14610064578063b2bdfa7b14610080575b600080fd5b61004e61009e565b60405161005b9190610337565b60405180910390f35b61007e60048036038101906100799190610380565b6100c2565b005b610088610294565b60405161009591906103ea565b60405180910390f35b7f000000000000000000000000000000000000000000000000000000000000000081565b6000816020013511610109576040517f08c379a000000000000000000000000000000000000000000000000000000000815260040161010090610462565b60405180910390fd5b60007f000000000000000000000000000000000000000000000000000000000000000073ffffffffffffffffffffffffffffffffffffffff166323b872dd3384600001602081019061015b91906104ae565b85602001356040518463ffffffff1660e01b815260040161017e939291906104f4565b6020604051808303816000875af115801561019d573d6000803e3d6000fd5b505050506040513d601f19601f820116820180604052508101906101c19190610563565b905080610203576040517f08c379a00000000000000000000000000000000000000000000000000000000081526004016101fa906105dc565b60405180910390fd5b81600001602081019061021691906104ae565b73ffffffffffffffffffffffffffffffffffffffff163373ffffffffffffffffffffffffffffffffffffffff167fc88d9282f1f5544952f5209c58f46e8df9d01331c19028c60fd814a748bc37508460200135858060400190610279919061060b565b604051610288939291906106e9565b60405180910390a35050565b60008054906101000a900473ffffffffffffffffffffffffffffffffffffffff1681565b600073ffffffffffffffffffffffffffffffffffffffff82169050919050565b6000819050919050565b60006102fd6102f86102f3846102b8565b6102d8565b6102b8565b9050919050565b600061030f826102e2565b9050919050565b600061032182610304565b9050919050565b61033181610316565b82525050565b600060208201905061034c6000830184610328565b92915050565b600080fd5b600080fd5b600080fd5b6000606082840312156103775761037661035c565b5b81905092915050565b60006020828403121561039657610395610352565b5b600082013567ffffffffffffffff8111156103b4576103b3610357565b5b6103c084828501610361565b91505092915050565b60006103d4826102b8565b9050919050565b6103e4816103c9565b82525050565b60006020820190506103ff60008301846103db565b92915050565b600082825260208201905092915050565b7f616d6f756e742073686f756c64206265203e2030000000000000000000000000600082015250565b600061044c601483610405565b915061045782610416565b602082019050919050565b6000602082019050818103600083015261047b8161043f565b9050919050565b61048b816103c9565b811461049657600080fd5b50565b6000813590506104a881610482565b92915050565b6000602082840312156104c4576104c3610352565b5b60006104d284828501610499565b91505092915050565b6000819050919050565b6104ee816104db565b82525050565b600060608201905061050960008301866103db565b61051660208301856103db565b61052360408301846104e5565b949350505050565b60008115159050919050565b6105408161052b565b811461054b57600080fd5b50565b60008151905061055d81610537565b92915050565b60006020828403121561057957610578610352565b5b60006105878482850161054e565b91505092915050565b7f55534443207472616e73666572206661696c6564000000000000000000000000600082015250565b60006105c6601483610405565b91506105d182610590565b602082019050919050565b600060208201905081810360008301526105f5816105b9565b9050919050565b600080fd5b600080fd5b600080fd5b60008083356001602003843603038112610628576106276105fc565b5b80840192508235915067ffffffffffffffff82111561064a57610649610601565b5b60208301925060208202360383131561066657610665610606565b5b509250929050565b600082825260208201905092915050565b600080fd5b82818337505050565b6000610699838561066e565b93507f07ffffffffffffffffffffffffffffffffffffffffffffffffffffffffffffff8311156106cc576106cb61067f565b5b6020830292506106dd838584610684565b82840190509392505050565b60006040820190506106fe60008301866104e5565b818103602083015261071181848661068d565b905094935050505056fea264697066735822122079e8c76e692f080e5bb9496406746d06d33749ff17725aeb8ecc116d7e76605064736f6c63430008180033",
  "linkReferences": {},
  "deployedLinkReferences": {}
}